{
  "contractName": "Casino",
  "abi": [
    {
      "constant": true,
      "inputs": [],
      "name": "LIMIT_AMOUNT_BETS",
      "outputs": [
        {
          "name": "",
          "type": "uint256"
        }
      ],
      "payable": false,
      "stateMutability": "view",
      "type": "function"
    },
    {
      "constant": true,
      "inputs": [],
      "name": "numberOfBets",
      "outputs": [
        {
          "name": "",
          "type": "uint256"
        }
      ],
      "payable": false,
      "stateMutability": "view",
      "type": "function"
    },
    {
      "constant": true,
      "inputs": [
        {
          "name": "",
          "type": "address"
        }
      ],
      "name": "playerBetsNumber",
      "outputs": [
        {
          "name": "",
          "type": "uint256"
        }
      ],
      "payable": false,
      "stateMutability": "view",
      "type": "function"
    },
    {
      "constant": true,
      "inputs": [],
      "name": "owner",
      "outputs": [
        {
          "name": "",
          "type": "address"
        }
      ],
      "payable": false,
      "stateMutability": "view",
      "type": "function"
    },
    {
      "constant": true,
      "inputs": [],
      "name": "lastWinNumber",
      "outputs": [
        {
          "name": "",
          "type": "uint256"
        }
      ],
      "payable": false,
      "stateMutability": "view",
      "type": "function"
    },
    {
      "constant": true,
      "inputs": [],
      "name": "minimumBet",
      "outputs": [
        {
          "name": "",
          "type": "uint256"
        }
      ],
      "payable": false,
      "stateMutability": "view",
      "type": "function"
    },
    {
      "constant": true,
      "inputs": [
        {
          "name": "",
          "type": "uint256"
        },
        {
          "name": "",
          "type": "uint256"
        }
      ],
      "name": "numberBetPlayers",
      "outputs": [
        {
          "name": "",
          "type": "address"
        }
      ],
      "payable": false,
      "stateMutability": "view",
      "type": "function"
    },
    {
      "constant": true,
      "inputs": [],
      "name": "maxAmountOfBets",
      "outputs": [
        {
          "name": "",
          "type": "uint256"
        }
      ],
      "payable": false,
      "stateMutability": "view",
      "type": "function"
    },
    {
      "constant": true,
      "inputs": [
        {
          "name": "",
          "type": "uint256"
        }
      ],
      "name": "players",
      "outputs": [
        {
          "name": "",
          "type": "address"
        }
      ],
      "payable": false,
      "stateMutability": "view",
      "type": "function"
    },
    {
      "constant": true,
      "inputs": [],
      "name": "totalBet",
      "outputs": [
        {
          "name": "",
          "type": "uint256"
        }
      ],
      "payable": false,
      "stateMutability": "view",
      "type": "function"
    },
    {
      "constant": true,
      "inputs": [
        {
          "name": "",
          "type": "address"
        }
      ],
      "name": "playerBetsMoney",
      "outputs": [
        {
          "name": "",
          "type": "uint256"
        }
      ],
      "payable": false,
      "stateMutability": "view",
      "type": "function"
    },
    {
      "inputs": [],
      "payable": false,
      "stateMutability": "nonpayable",
      "type": "constructor"
    },
    {
      "constant": false,
      "inputs": [
        {
          "name": "_minimumBet",
          "type": "uint256"
        }
      ],
      "name": "changeMinimumBet",
      "outputs": [],
      "payable": false,
      "stateMutability": "nonpayable",
      "type": "function"
    },
    {
      "constant": false,
      "inputs": [
        {
          "name": "_newVal",
          "type": "uint256"
        }
      ],
      "name": "changeMaxAmountOfBets",
      "outputs": [],
      "payable": false,
      "stateMutability": "nonpayable",
      "type": "function"
    },
    {
      "constant": false,
      "inputs": [
        {
          "name": "newRunTime",
          "type": "uint256"
        },
        {
          "name": "newHashNum",
          "type": "uint256"
        }
      ],
      "name": "changeRNG",
      "outputs": [],
      "payable": false,
      "stateMutability": "nonpayable",
      "type": "function"
    },
    {
      "constant": true,
      "inputs": [],
      "name": "showCasinoBalance",
      "outputs": [
        {
          "name": "",
          "type": "uint256"
        }
      ],
      "payable": false,
      "stateMutability": "view",
      "type": "function"
    },
    {
      "constant": false,
      "inputs": [],
      "name": "kill",
      "outputs": [],
      "payable": false,
      "stateMutability": "nonpayable",
      "type": "function"
    },
    {
      "constant": false,
      "inputs": [
        {
          "name": "numberSelected",
          "type": "uint256"
        }
      ],
      "name": "bet",
      "outputs": [],
      "payable": true,
      "stateMutability": "payable",
      "type": "function"
    },
    {
      "constant": true,
      "inputs": [
        {
          "name": "player",
          "type": "address"
        }
      ],
      "name": "checkPlayerExists",
      "outputs": [
        {
          "name": "",
          "type": "bool"
        }
      ],
      "payable": false,
      "stateMutability": "view",
      "type": "function"
    },
    {
      "constant": false,
      "inputs": [],
      "name": "generateNumberWinner",
      "outputs": [],
      "payable": false,
      "stateMutability": "nonpayable",
      "type": "function"
    },
    {
      "constant": false,
      "inputs": [
        {
          "name": "winNumber",
          "type": "uint256"
        }
      ],
      "name": "distributePrizes",
      "outputs": [],
      "payable": false,
      "stateMutability": "nonpayable",
      "type": "function"
    }
  ],
  "bytecode": "0x606060405266038d7ea4c68000600155600a6002556001600355610209600455341561002a57600080fd5b336000806101000a81548173ffffffffffffffffffffffffffffffffffffffff021916908373ffffffffffffffffffffffffffffffffffffffff16021790555061103d806100796000396000f300606060405260043610610112576000357c0100000000000000000000000000000000000000000000000000000000900463ffffffff1680630a50e361146101175780631900874b1461012c5780632ca8c6d3146101555780632d40e4e91461017e57806332eacbde146101a15780634081d916146101ee57806341c0e1b51461023f578063616fbee7146102545780636ca3fc3b146102775780637365870b1461029a57806376bbd8bb146102b25780638da5cb5b146102de57806391f11a9c146103335780639f5bdb231461035c578063c38a8afd14610385578063cc5371bf146103ae578063e08a96cd1461041a578063f71d96cb14610443578063fe5e1853146104a6578063ff907603146104cf575b600080fd5b341561012257600080fd5b61012a61051c565b005b341561013757600080fd5b61013f610608565b6040518082815260200191505060405180910390f35b341561016057600080fd5b61016861060d565b6040518082815260200191505060405180910390f35b341561018957600080fd5b61019f6004808035906020019091905050610613565b005b34156101ac57600080fd5b6101d8600480803573ffffffffffffffffffffffffffffffffffffffff1690602001909190505061068f565b6040518082815260200191505060405180910390f35b34156101f957600080fd5b610225600480803573ffffffffffffffffffffffffffffffffffffffff169060200190919050506106a7565b604051808215151515815260200191505060405180910390f35b341561024a57600080fd5b610252610703565b005b341561025f57600080fd5b6102756004808035906020019091905050610794565b005b341561028257600080fd5b6102986004808035906020019091905050610803565b005b6102b06004808035906020019091905050610a3e565b005b34156102bd57600080fd5b6102dc6004808035906020019091908035906020019091905050610c2d565b005b34156102e957600080fd5b6102f1610ca4565b604051808273ffffffffffffffffffffffffffffffffffffffff1673ffffffffffffffffffffffffffffffffffffffff16815260200191505060405180910390f35b341561033e57600080fd5b610346610cc9565b6040518082815260200191505060405180910390f35b341561036757600080fd5b61036f610ccf565b6040518082815260200191505060405180910390f35b341561039057600080fd5b610398610d49565b6040518082815260200191505060405180910390f35b34156103b957600080fd5b6103d86004808035906020019091908035906020019091905050610d4f565b604051808273ffffffffffffffffffffffffffffffffffffffff1673ffffffffffffffffffffffffffffffffffffffff16815260200191505060405180910390f35b341561042557600080fd5b61042d610d9d565b6040518082815260200191505060405180910390f35b341561044e57600080fd5b6104646004808035906020019091905050610da3565b604051808273ffffffffffffffffffffffffffffffffffffffff1673ffffffffffffffffffffffffffffffffffffffff16815260200191505060405180910390f35b34156104b157600080fd5b6104b9610de2565b6040518082815260200191505060405180910390f35b34156104da57600080fd5b610506600480803573ffffffffffffffffffffffffffffffffffffffff16906020019091905050610de8565b6040518082815260200191505060405180910390f35b60008060006002546006541015156106035760009250600091505b6003548210156105f2578180600101925050600190505b600a811115156105be576009600082815260200190815260200160002080549050810283019250600060028281151561058357fe5b0614156105b15760045483019250600060045411156105b057600460008154809291906001900391905055505b5b808060010191505061054e565b6001600a80438115156105cd57fe5b06600a6004548115156105dc57fe5b048601018115156105e957fe5b06019250610537565b8260078190555061060283610803565b5b505050565b606481565b60065481565b6000809054906101000a900473ffffffffffffffffffffffffffffffffffffffff1673ffffffffffffffffffffffffffffffffffffffff163373ffffffffffffffffffffffffffffffffffffffff1614151561066e57600080fd5b60008111801561067f575060648111155b1561068c57806002819055505b50565b600a6020528060005260406000206000915090505481565b600080600a60008473ffffffffffffffffffffffffffffffffffffffff1673ffffffffffffffffffffffffffffffffffffffff1681526020019081526020016000205411156106f957600190506106fe565b600090505b919050565b6000809054906101000a900473ffffffffffffffffffffffffffffffffffffffff1673ffffffffffffffffffffffffffffffffffffffff163373ffffffffffffffffffffffffffffffffffffffff161415610792576000809054906101000a900473ffffffffffffffffffffffffffffffffffffffff1673ffffffffffffffffffffffffffffffffffffffff16ff5b565b6000809054906101000a900473ffffffffffffffffffffffffffffffffffffffff1673ffffffffffffffffffffffffffffffffffffffff163373ffffffffffffffffffffffffffffffffffffffff161415156107ef57600080fd5b600081111561080057806001819055505b50565b6000806000600254600654101515610a385760009250600091505b60096000858152602001908152602001600020805490508210156108d857600b6000600960008781526020019081526020016000208481548110151561086057fe5b906000526020600020900160009054906101000a900473ffffffffffffffffffffffffffffffffffffffff1673ffffffffffffffffffffffffffffffffffffffff1673ffffffffffffffffffffffffffffffffffffffff1681526020019081526020016000205483019250818060010192505061081e565b600091505b6009600085815260200190815260200160002080549050821015610a2f5782600b6000600960008881526020019081526020016000208581548110151561092057fe5b906000526020600020900160009054906101000a900473ffffffffffffffffffffffffffffffffffffffff1673ffffffffffffffffffffffffffffffffffffffff1673ffffffffffffffffffffffffffffffffffffffff168152602001908152602001600020546005540281151561099457fe5b04905060096000858152602001908152602001600020828154811015156109b757fe5b906000526020600020900160009054906101000a900473ffffffffffffffffffffffffffffffffffffffff1673ffffffffffffffffffffffffffffffffffffffff166108fc829081150290604051600060405180830381858888f193505050501515610a2257600080fd5b81806001019250506108dd565b610a37610e00565b5b50505050565b610a47336106a7565b151515610a5357600080fd5b60018110158015610a655750600a8111155b1515610a7057600080fd5b6001543410151515610a8157600080fd5b600254600654101515610a9357600080fd5b6006600081548092919060010191905055503460056000828254019250508190555060088054806001018281610ac99190610f94565b9160005260206000209001600033909190916101000a81548173ffffffffffffffffffffffffffffffffffffffff021916908373ffffffffffffffffffffffffffffffffffffffff1602179055505080600a60003373ffffffffffffffffffffffffffffffffffffffff1673ffffffffffffffffffffffffffffffffffffffff1681526020019081526020016000208190555034600b60003373ffffffffffffffffffffffffffffffffffffffff1673ffffffffffffffffffffffffffffffffffffffff16815260200190815260200160002081905550600960008281526020019081526020016000208054806001018281610bc59190610f94565b9160005260206000209001600033909190916101000a81548173ffffffffffffffffffffffffffffffffffffffff021916908373ffffffffffffffffffffffffffffffffffffffff16021790555050600254600654101515610c2a57610c2961051c565b5b50565b6000809054906101000a900473ffffffffffffffffffffffffffffffffffffffff1673ffffffffffffffffffffffffffffffffffffffff163373ffffffffffffffffffffffffffffffffffffffff16141515610c8857600080fd5b6000821115610c9957816003819055505b806004819055505050565b6000809054906101000a900473ffffffffffffffffffffffffffffffffffffffff1681565b60075481565b60008060009054906101000a900473ffffffffffffffffffffffffffffffffffffffff1673ffffffffffffffffffffffffffffffffffffffff163373ffffffffffffffffffffffffffffffffffffffff16141515610d2c57600080fd5b3073ffffffffffffffffffffffffffffffffffffffff1631905090565b60015481565b600960205281600052604060002081815481101515610d6a57fe5b90600052602060002090016000915091509054906101000a900473ffffffffffffffffffffffffffffffffffffffff1681565b60025481565b600881815481101515610db257fe5b90600052602060002090016000915054906101000a900473ffffffffffffffffffffffffffffffffffffffff1681565b60055481565b600b6020528060005260406000206000915090505481565b6000600190505b600a81111515610e3f5760006009600083815260200190815260200160002081610e319190610fc0565b508080600101915050610e07565b600090505b600880549050811015610f5c576000600a6000600884815481101515610e6657fe5b906000526020600020900160009054906101000a900473ffffffffffffffffffffffffffffffffffffffff1673ffffffffffffffffffffffffffffffffffffffff1673ffffffffffffffffffffffffffffffffffffffff168152602001908152602001600020819055506000600b6000600884815481101515610ee557fe5b906000526020600020900160009054906101000a900473ffffffffffffffffffffffffffffffffffffffff1673ffffffffffffffffffffffffffffffffffffffff1673ffffffffffffffffffffffffffffffffffffffff168152602001908152602001600020819055508080600101915050610e44565b6000600881610f6b9190610fc0565b506000600581905550600060068190555060006004541415610f91576128076004819055505b50565b815481835581811511610fbb57818360005260206000209182019101610fba9190610fec565b5b505050565b815481835581811511610fe757818360005260206000209182019101610fe69190610fec565b5b505050565b61100e91905b8082111561100a576000816000905550600101610ff2565b5090565b905600a165627a7a7230582048fb5b7707b04c0f489978b2e4b8f9048cdd10b917007b56f163e106826c98e00029",
  "source": "pragma solidity ^0.4.20;\r\n\r\ncontract Casino {\r\n    address public owner;\r\n    // The minimum bet a user has to make to participate in the game\r\n    uint public minimumBet = 1 finney; // Equal to 0.001 ether\r\n    // The maximum amount of bets can be made for each game\r\n    uint public maxAmountOfBets = 10;\r\n    // The max amount of bets that cannot be exceeded to avoid excessive gas consumption\r\n    // when distributing the prizes and restarting the game\r\n    uint public constant LIMIT_AMOUNT_BETS = 100;\r\n    // this number is used to generate one random number\r\n    uint private runTime = 1;\r\n    // this number is used to generate one random number\r\n    uint private hashNum = 521;\r\n    // The total amount of Ether bet for this current game\r\n    uint public totalBet;\r\n    // The total number of bets the users have made\r\n    uint public numberOfBets;\r\n    // The number that won the last game (answer for last game)\r\n    uint public lastWinNumber;\r\n    // Array of players\r\n    address[] public players;\r\n    // Each number has an array of players. Associate each number with a bunch of players\r\n    mapping(uint => address[]) public numberBetPlayers;\r\n    // The number that each player has bet for\r\n    mapping(address => uint) public playerBetsNumber;\r\n    // The total amount of money for each player has bet for\r\n    mapping(address => uint) public playerBetsMoney;\r\n\r\n    // Modifier to only allow the execution of functions when the bets are completed\r\n    modifier onEndGame(){\r\n        if(numberOfBets >= maxAmountOfBets) _;\r\n    }\r\n\r\n    // constructor\r\n    function Casino() public {\r\n        owner = msg.sender;\r\n    }\r\n    //********************************************************** */\r\n\r\n    // some rule changing functions -> require owner to change\r\n    function changeMinimumBet(uint _minimumBet) public {\r\n        require(msg.sender == owner);\r\n        if(_minimumBet > 0) minimumBet = _minimumBet;\r\n    }\r\n\r\n    function changeMaxAmountOfBets(uint _newVal) public {\r\n        require(msg.sender == owner);\r\n        if(_newVal > 0 && _newVal <= LIMIT_AMOUNT_BETS) {\r\n            maxAmountOfBets = _newVal;\r\n        }\r\n    }\r\n    \r\n    // change generate random number run time\r\n    function changeRNG(uint newRunTime, uint newHashNum) public {\r\n        require(msg.sender == owner);\r\n        if(newRunTime > 0) {\r\n            runTime = newRunTime;\r\n        }\r\n        hashNum = newHashNum;\r\n    }\r\n\r\n    // this is only for test\r\n    function showCasinoBalance() public view returns(uint256){\r\n        require(msg.sender == owner);\r\n        return address(this).balance;\r\n    }\r\n    //*********************************************************** */\r\n\r\n    function kill() public {\r\n        if(msg.sender==owner) {\r\n            selfdestruct(owner);\r\n        }\r\n    }\r\n    //********************************************************** */\r\n\r\n    // to bet for a number between 1 and 10 both inclusive\r\n    function bet(uint256 numberSelected) public payable {\r\n        require(!checkPlayerExists(msg.sender));\r\n        require(numberSelected >= 1 && numberSelected <= 10);\r\n        require(msg.value >= minimumBet);\r\n        require(numberOfBets < maxAmountOfBets);\r\n        \r\n        numberOfBets++;\r\n        totalBet += msg.value;\r\n        players.push(msg.sender);\r\n        playerBetsNumber[msg.sender] = numberSelected;\r\n        playerBetsMoney[msg.sender] = msg.value;\r\n        numberBetPlayers[numberSelected].push(msg.sender);\r\n\r\n        if(numberOfBets >= maxAmountOfBets) generateNumberWinner();\r\n    }\r\n\r\n    function checkPlayerExists(address player) public constant returns(bool) {\r\n        if(playerBetsNumber[player] > 0) {\r\n            return true;\r\n        }\r\n        else return false;\r\n    }\r\n    //********************************************************** */\r\n\r\n    // generate a random number between 1 and 10\r\n    // Must be payable because oraclize needs gas to generate a random number.\r\n    // Can only be executed when the game ends.\r\n    function generateNumberWinner() onEndGame public {\r\n        uint256 winNumber = 0;\r\n        uint256 time = 0;\r\n        while(time < runTime) {\r\n            time++;\r\n            for(uint i = 1; i <= 10; i++) {\r\n                winNumber += i*numberBetPlayers[i].length;\r\n                if(i%2 == 0) {\r\n                    winNumber += hashNum;\r\n                    if(hashNum > 0) hashNum--;\r\n                }\r\n            }\r\n            winNumber = ((winNumber + (hashNum/10)) + block.number%10)%10 + 1;\r\n        }\r\n        lastWinNumber = winNumber;\r\n        distributePrizes(winNumber);\r\n    }\r\n\r\n    // Sends the corresponding ether to each winner depending on the total bets\r\n    function distributePrizes(uint256 winNumber) onEndGame public {\r\n        // calculate winner amount\r\n        uint winnerAmount = 0;\r\n        for(uint i = 0; i < numberBetPlayers[winNumber].length; i++) {\r\n            winnerAmount += playerBetsMoney[numberBetPlayers[winNumber][i]];\r\n        }\r\n\r\n        for( i = 0; i < numberBetPlayers[winNumber].length; i++) {\r\n            // How much each winner gets\r\n            uint winnerEtherAmount = totalBet * playerBetsMoney[numberBetPlayers[winNumber][i]] / winnerAmount;\r\n            numberBetPlayers[winNumber][i].transfer(winnerEtherAmount);\r\n        }\r\n        resetData();\r\n    }\r\n    //********************************************************** */\r\n    \r\n    // reset all data after distribute prizes\r\n    function resetData() private {\r\n        // Delete all the players for each number\r\n        for(uint i = 1; i <= 10; i++){\r\n            numberBetPlayers[i].length = 0;\r\n        }\r\n        // Delete all players in the round\r\n        for(i = 0; i < players.length; i++) {\r\n            playerBetsNumber[players[i]] = 0;\r\n            playerBetsMoney[players[i]] = 0;\r\n        }\r\n        players.length = 0;\r\n        totalBet = 0;\r\n        numberOfBets = 0;\r\n        if(hashNum == 0) hashNum = 10247;\r\n    }\r\n    //*********************************************************** */\r\n\r\n}",
  "sourcePath": "C:\\Truffle_Project\\casino-ethereum\\contracts\\Casino.sol",
  "compiler": {
    "name": "solc",
    "version": "0.4.21+commit.dfe3193c.Emscripten.clang"
  },
  "schemaVersion": "2.0.0",
  "updatedAt": "2018-04-16T23:43:52.790Z"
}